{
  "contractName": "Minter",
  "abi": [
    {
      "inputs": [
        {
          "internalType": "string",
          "name": "tokenName",
          "type": "string"
        },
        {
          "internalType": "string",
          "name": "symbol",
          "type": "string"
        }
      ],
      "stateMutability": "nonpayable",
      "type": "constructor"
    },
    {
      "inputs": [],
      "name": "MinterError",
      "type": "error"
    },
    {
      "anonymous": false,
      "inputs": [
        {
          "indexed": true,
          "internalType": "address",
          "name": "owner",
          "type": "address"
        },
        {
          "indexed": true,
          "internalType": "address",
          "name": "approved",
          "type": "address"
        },
        {
          "indexed": true,
          "internalType": "uint256",
          "name": "tokenId",
          "type": "uint256"
        }
      ],
      "name": "Approval",
      "type": "event"
    },
    {
      "anonymous": false,
      "inputs": [
        {
          "indexed": true,
          "internalType": "address",
          "name": "owner",
          "type": "address"
        },
        {
          "indexed": true,
          "internalType": "address",
          "name": "operator",
          "type": "address"
        },
        {
          "indexed": false,
          "internalType": "bool",
          "name": "approved",
          "type": "bool"
        }
      ],
      "name": "ApprovalForAll",
      "type": "event"
    },
    {
      "anonymous": false,
      "inputs": [
        {
          "indexed": true,
          "internalType": "address",
          "name": "from",
          "type": "address"
        },
        {
          "indexed": true,
          "internalType": "address",
          "name": "to",
          "type": "address"
        },
        {
          "indexed": true,
          "internalType": "uint256",
          "name": "tokenId",
          "type": "uint256"
        }
      ],
      "name": "Transfer",
      "type": "event"
    },
    {
      "inputs": [
        {
          "internalType": "address",
          "name": "",
          "type": "address"
        },
        {
          "internalType": "uint256",
          "name": "",
          "type": "uint256"
        }
      ],
      "name": "_ownedTokens",
      "outputs": [
        {
          "internalType": "uint256",
          "name": "",
          "type": "uint256"
        }
      ],
      "stateMutability": "view",
      "type": "function",
      "constant": true
    },
    {
      "inputs": [
        {
          "internalType": "uint256",
          "name": "",
          "type": "uint256"
        }
      ],
      "name": "_tokenToShipCode",
      "outputs": [
        {
          "internalType": "string",
          "name": "",
          "type": "string"
        }
      ],
      "stateMutability": "view",
      "type": "function",
      "constant": true
    },
    {
      "inputs": [
        {
          "internalType": "address",
          "name": "to",
          "type": "address"
        },
        {
          "internalType": "uint256",
          "name": "tokenId",
          "type": "uint256"
        }
      ],
      "name": "approve",
      "outputs": [],
      "stateMutability": "nonpayable",
      "type": "function"
    },
    {
      "inputs": [
        {
          "internalType": "address",
          "name": "owner",
          "type": "address"
        }
      ],
      "name": "balanceOf",
      "outputs": [
        {
          "internalType": "uint256",
          "name": "",
          "type": "uint256"
        }
      ],
      "stateMutability": "view",
      "type": "function",
      "constant": true
    },
    {
      "inputs": [
        {
          "internalType": "uint256",
          "name": "tokenId",
          "type": "uint256"
        }
      ],
      "name": "getApproved",
      "outputs": [
        {
          "internalType": "address",
          "name": "",
          "type": "address"
        }
      ],
      "stateMutability": "view",
      "type": "function",
      "constant": true
    },
    {
      "inputs": [
        {
          "internalType": "address",
          "name": "owner",
          "type": "address"
        },
        {
          "internalType": "address",
          "name": "operator",
          "type": "address"
        }
      ],
      "name": "isApprovedForAll",
      "outputs": [
        {
          "internalType": "bool",
          "name": "",
          "type": "bool"
        }
      ],
      "stateMutability": "view",
      "type": "function",
      "constant": true
    },
    {
      "inputs": [],
      "name": "name",
      "outputs": [
        {
          "internalType": "string",
          "name": "",
          "type": "string"
        }
      ],
      "stateMutability": "view",
      "type": "function",
      "constant": true
    },
    {
      "inputs": [
        {
          "internalType": "uint256",
          "name": "tokenId",
          "type": "uint256"
        }
      ],
      "name": "ownerOf",
      "outputs": [
        {
          "internalType": "address",
          "name": "",
          "type": "address"
        }
      ],
      "stateMutability": "view",
      "type": "function",
      "constant": true
    },
    {
      "inputs": [
        {
          "internalType": "address",
          "name": "from",
          "type": "address"
        },
        {
          "internalType": "address",
          "name": "to",
          "type": "address"
        },
        {
          "internalType": "uint256",
          "name": "tokenId",
          "type": "uint256"
        }
      ],
      "name": "safeTransferFrom",
      "outputs": [],
      "stateMutability": "nonpayable",
      "type": "function"
    },
    {
      "inputs": [
        {
          "internalType": "address",
          "name": "from",
          "type": "address"
        },
        {
          "internalType": "address",
          "name": "to",
          "type": "address"
        },
        {
          "internalType": "uint256",
          "name": "tokenId",
          "type": "uint256"
        },
        {
          "internalType": "bytes",
          "name": "_data",
          "type": "bytes"
        }
      ],
      "name": "safeTransferFrom",
      "outputs": [],
      "stateMutability": "nonpayable",
      "type": "function"
    },
    {
      "inputs": [
        {
          "internalType": "address",
          "name": "operator",
          "type": "address"
        },
        {
          "internalType": "bool",
          "name": "approved",
          "type": "bool"
        }
      ],
      "name": "setApprovalForAll",
      "outputs": [],
      "stateMutability": "nonpayable",
      "type": "function"
    },
    {
      "inputs": [
        {
          "internalType": "bytes4",
          "name": "interfaceId",
          "type": "bytes4"
        }
      ],
      "name": "supportsInterface",
      "outputs": [
        {
          "internalType": "bool",
          "name": "",
          "type": "bool"
        }
      ],
      "stateMutability": "view",
      "type": "function",
      "constant": true
    },
    {
      "inputs": [],
      "name": "symbol",
      "outputs": [
        {
          "internalType": "string",
          "name": "",
          "type": "string"
        }
      ],
      "stateMutability": "view",
      "type": "function",
      "constant": true
    },
    {
      "inputs": [
        {
          "internalType": "uint256",
          "name": "tokenId",
          "type": "uint256"
        }
      ],
      "name": "tokenURI",
      "outputs": [
        {
          "internalType": "string",
          "name": "",
          "type": "string"
        }
      ],
      "stateMutability": "view",
      "type": "function",
      "constant": true
    },
    {
      "inputs": [
        {
          "internalType": "address",
          "name": "from",
          "type": "address"
        },
        {
          "internalType": "address",
          "name": "to",
          "type": "address"
        },
        {
          "internalType": "uint256",
          "name": "tokenId",
          "type": "uint256"
        }
      ],
      "name": "transferFrom",
      "outputs": [],
      "stateMutability": "nonpayable",
      "type": "function"
    },
    {
      "inputs": [],
      "name": "mintShip",
      "outputs": [
        {
          "internalType": "uint256",
          "name": "",
          "type": "uint256"
        }
      ],
      "stateMutability": "nonpayable",
      "type": "function"
    },
    {
      "inputs": [
        {
          "internalType": "uint256",
          "name": "tokenId",
          "type": "uint256"
        },
        {
          "internalType": "string",
          "name": "shipCode",
          "type": "string"
        }
      ],
      "name": "upgradeShip",
      "outputs": [],
      "stateMutability": "nonpayable",
      "type": "function"
    },
    {
      "inputs": [
        {
          "internalType": "uint256",
          "name": "index",
          "type": "uint256"
        }
      ],
      "name": "tokenOfOwnerByIndex",
      "outputs": [
        {
          "internalType": "uint256",
          "name": "",
          "type": "uint256"
        }
      ],
      "stateMutability": "view",
      "type": "function",
      "constant": true
    },
    {
      "inputs": [],
      "name": "throwError",
      "outputs": [],
      "stateMutability": "pure",
      "type": "function",
      "constant": true
    }
  ],
  "bytecode": "0x60806040523480156200001157600080fd5b506040516200347438038062003474833981810160405281019062000037919062000197565b818181600090805190602001906200005192919062000075565b5080600190805190602001906200006a92919062000075565b50505050506200037a565b82805462000083906200029f565b90600052602060002090601f016020900481019282620000a75760008555620000f3565b82601f10620000c257805160ff1916838001178555620000f3565b82800160010185558215620000f3579182015b82811115620000f2578251825591602001919060010190620000d5565b5b50905062000102919062000106565b5090565b5b808211156200012157600081600090555060010162000107565b5090565b60006200013c620001368462000233565b6200020a565b9050828152602081018484840111156200015557600080fd5b6200016284828562000269565b509392505050565b600082601f8301126200017c57600080fd5b81516200018e84826020860162000125565b91505092915050565b60008060408385031215620001ab57600080fd5b600083015167ffffffffffffffff811115620001c657600080fd5b620001d4858286016200016a565b925050602083015167ffffffffffffffff811115620001f257600080fd5b62000200858286016200016a565b9150509250929050565b60006200021662000229565b9050620002248282620002d5565b919050565b6000604051905090565b600067ffffffffffffffff8211156200025157620002506200033a565b5b6200025c8262000369565b9050602081019050919050565b60005b83811015620002895780820151818401526020810190506200026c565b8381111562000299576000848401525b50505050565b60006002820490506001821680620002b857607f821691505b60208210811415620002cf57620002ce6200030b565b5b50919050565b620002e08262000369565b810181811067ffffffffffffffff821117156200030257620003016200033a565b5b80604052505050565b7f4e487b7100000000000000000000000000000000000000000000000000000000600052602260045260246000fd5b7f4e487b7100000000000000000000000000000000000000000000000000000000600052604160045260246000fd5b6000601f19601f8301169050919050565b6130ea806200038a6000396000f3fe608060405234801561001057600080fd5b50600436106101215760003560e01c80634f3c5f06116100ad578063a22cb46511610071578063a22cb4651461031a578063a23a501d14610336578063b88d4fde14610366578063c87b56dd14610382578063e985e9c5146103b257610121565b80634f3c5f06146102505780636352211e146102805780637079db60146102b057806370a08231146102cc57806395d89b41146102fc57610121565b80631e9b68c3116100f45780631e9b68c3146101c057806323b872dd146101de5780632f7643a8146101fa5780634245f3da1461020457806342842e0e1461023457610121565b806301ffc9a71461012657806306fdde0314610156578063081812fc14610174578063095ea7b3146101a4575b600080fd5b610140600480360381019061013b9190611fe1565b6103e2565b60405161014d91906124fc565b60405180910390f35b61015e6104c4565b60405161016b9190612517565b60405180910390f35b61018e60048036038101906101899190612033565b610556565b60405161019b9190612495565b60405180910390f35b6101be60048036038101906101b99190611fa5565b6105db565b005b6101c86106f3565b6040516101d59190612739565b60405180910390f35b6101f860048036038101906101f39190611e9f565b6107b2565b005b610202610812565b005b61021e60048036038101906102199190612033565b610844565b60405161022b9190612739565b60405180910390f35b61024e60048036038101906102499190611e9f565b61089e565b005b61026a60048036038101906102659190611fa5565b6108be565b6040516102779190612739565b60405180910390f35b61029a60048036038101906102959190612033565b6108e3565b6040516102a79190612495565b60405180910390f35b6102ca60048036038101906102c5919061205c565b610995565b005b6102e660048036038101906102e19190611e3a565b6109f0565b6040516102f39190612739565b60405180910390f35b610304610aa8565b6040516103119190612517565b60405180910390f35b610334600480360381019061032f9190611f69565b610b3a565b005b610350600480360381019061034b9190612033565b610b50565b60405161035d9190612517565b60405180910390f35b610380600480360381019061037b9190611eee565b610bf0565b005b61039c60048036038101906103979190612033565b610c52565b6040516103a99190612517565b60405180910390f35b6103cc60048036038101906103c79190611e63565b610da4565b6040516103d991906124fc565b60405180910390f35b60007f80ac58cd000000000000000000000000000000000000000000000000000000007bffffffffffffffffffffffffffffffffffffffffffffffffffffffff1916827bffffffffffffffffffffffffffffffffffffffffffffffffffffffff191614806104ad57507f5b5e139f000000000000000000000000000000000000000000000000000000007bffffffffffffffffffffffffffffffffffffffffffffffffffffffff1916827bffffffffffffffffffffffffffffffffffffffffffffffffffffffff1916145b806104bd57506104bc82610e38565b5b9050919050565b6060600080546104d39061298f565b80601f01602080910402602001604051908101604052809291908181526020018280546104ff9061298f565b801561054c5780601f106105215761010080835404028352916020019161054c565b820191906000526020600020905b81548152906001019060200180831161052f57829003601f168201915b5050505050905090565b600061056182610ea2565b6105a0576040517f08c379a0000000000000000000000000000000000000000000000000000000008152600401610597906126b9565b60405180910390fd5b6004600083815260200190815260200160002060009054906101000a900473ffffffffffffffffffffffffffffffffffffffff169050919050565b60006105e6826108e3565b90508073ffffffffffffffffffffffffffffffffffffffff168373ffffffffffffffffffffffffffffffffffffffff161415610657576040517f08c379a000000000000000000000000000000000000000000000000000000000815260040161064e906126f9565b60405180910390fd5b8073ffffffffffffffffffffffffffffffffffffffff16610676610f0e565b73ffffffffffffffffffffffffffffffffffffffff1614806106a557506106a48161069f610f0e565b610da4565b5b6106e4576040517f08c379a00000000000000000000000000000000000000000000000000000000081526004016106db906125f9565b60405180910390fd5b6106ee8383610f16565b505050565b60006106ff6007610fcf565b600061070b6007610fe5565b90506107173382610ff3565b6040518060400160405280600481526020017f3030303000000000000000000000000000000000000000000000000000000000815250600860008381526020019081526020016000209080519060200190610773929190611c5e565b5061077e3382611011565b600060405160200161078f9061246a565b60405160208183030381529060405290506107aa8282611078565b819250505090565b6107c36107bd610f0e565b826110ec565b610802576040517f08c379a00000000000000000000000000000000000000000000000000000000081526004016107f990612719565b60405180910390fd5b61080d8383836111ca565b505050565b6040517ff2d1b8d100000000000000000000000000000000000000000000000000000000815260040160405180910390fd5b6000600960003373ffffffffffffffffffffffffffffffffffffffff1673ffffffffffffffffffffffffffffffffffffffff1681526020019081526020016000206000838152602001908152602001600020549050919050565b6108b983838360405180602001604052806000815250610bf0565b505050565b6009602052816000526040600020602052806000526040600020600091509150505481565b6000806002600084815260200190815260200160002060009054906101000a900473ffffffffffffffffffffffffffffffffffffffff169050600073ffffffffffffffffffffffffffffffffffffffff168173ffffffffffffffffffffffffffffffffffffffff16141561098c576040517f08c379a000000000000000000000000000000000000000000000000000000000815260040161098390612639565b60405180910390fd5b80915050919050565b806008600084815260200190815260200160002090805190602001906109bc929190611c5e565b506000816040516020016109d0919061243d565b60405160208183030381529060405290506109eb8382611078565b505050565b60008073ffffffffffffffffffffffffffffffffffffffff168273ffffffffffffffffffffffffffffffffffffffff161415610a61576040517f08c379a0000000000000000000000000000000000000000000000000000000008152600401610a5890612619565b60405180910390fd5b600360008373ffffffffffffffffffffffffffffffffffffffff1673ffffffffffffffffffffffffffffffffffffffff168152602001908152602001600020549050919050565b606060018054610ab79061298f565b80601f0160208091040260200160405190810160405280929190818152602001828054610ae39061298f565b8015610b305780601f10610b0557610100808354040283529160200191610b30565b820191906000526020600020905b815481529060010190602001808311610b1357829003601f168201915b5050505050905090565b610b4c610b45610f0e565b8383611431565b5050565b60086020528060005260406000206000915090508054610b6f9061298f565b80601f0160208091040260200160405190810160405280929190818152602001828054610b9b9061298f565b8015610be85780601f10610bbd57610100808354040283529160200191610be8565b820191906000526020600020905b815481529060010190602001808311610bcb57829003601f168201915b505050505081565b610c01610bfb610f0e565b836110ec565b610c40576040517f08c379a0000000000000000000000000000000000000000000000000000000008152600401610c3790612719565b60405180910390fd5b610c4c8484848461159e565b50505050565b6060610c5d82610ea2565b610c9c576040517f08c379a0000000000000000000000000000000000000000000000000000000008152600401610c9390612699565b60405180910390fd5b6000600660008481526020019081526020016000208054610cbc9061298f565b80601f0160208091040260200160405190810160405280929190818152602001828054610ce89061298f565b8015610d355780601f10610d0a57610100808354040283529160200191610d35565b820191906000526020600020905b815481529060010190602001808311610d1857829003601f168201915b505050505090506000610d466115fa565b9050600081511415610d5c578192505050610d9f565b600082511115610d91578082604051602001610d79929190612419565b60405160208183030381529060405292505050610d9f565b610d9a84611611565b925050505b919050565b6000600560008473ffffffffffffffffffffffffffffffffffffffff1673ffffffffffffffffffffffffffffffffffffffff16815260200190815260200160002060008373ffffffffffffffffffffffffffffffffffffffff1673ffffffffffffffffffffffffffffffffffffffff16815260200190815260200160002060009054906101000a900460ff16905092915050565b60007f01ffc9a7000000000000000000000000000000000000000000000000000000007bffffffffffffffffffffffffffffffffffffffffffffffffffffffff1916827bffffffffffffffffffffffffffffffffffffffffffffffffffffffff1916149050919050565b60008073ffffffffffffffffffffffffffffffffffffffff166002600084815260200190815260200160002060009054906101000a900473ffffffffffffffffffffffffffffffffffffffff1673ffffffffffffffffffffffffffffffffffffffff1614159050919050565b600033905090565b816004600083815260200190815260200160002060006101000a81548173ffffffffffffffffffffffffffffffffffffffff021916908373ffffffffffffffffffffffffffffffffffffffff160217905550808273ffffffffffffffffffffffffffffffffffffffff16610f89836108e3565b73ffffffffffffffffffffffffffffffffffffffff167f8c5be1e5ebec7d5bd14f71427d1e84f3dd0314c0f7b2291e5b200ac8c7c3b92560405160405180910390a45050565b6001816000016000828254019250508190555050565b600081600001549050919050565b61100d8282604051806020016040528060008152506116b8565b5050565b600061101c836109f0565b905081600960008573ffffffffffffffffffffffffffffffffffffffff1673ffffffffffffffffffffffffffffffffffffffff168152602001908152602001600020600083815260200190815260200160002081905550505050565b61108182610ea2565b6110c0576040517f08c379a00000000000000000000000000000000000000000000000000000000081526004016110b790612659565b60405180910390fd5b806006600084815260200190815260200160002090805190602001906110e7929190611c5e565b505050565b60006110f782610ea2565b611136576040517f08c379a000000000000000000000000000000000000000000000000000000000815260040161112d906125d9565b60405180910390fd5b6000611141836108e3565b90508073ffffffffffffffffffffffffffffffffffffffff168473ffffffffffffffffffffffffffffffffffffffff16148061118357506111828185610da4565b5b806111c157508373ffffffffffffffffffffffffffffffffffffffff166111a984610556565b73ffffffffffffffffffffffffffffffffffffffff16145b91505092915050565b8273ffffffffffffffffffffffffffffffffffffffff166111ea826108e3565b73ffffffffffffffffffffffffffffffffffffffff1614611240576040517f08c379a000000000000000000000000000000000000000000000000000000000815260040161123790612559565b60405180910390fd5b600073ffffffffffffffffffffffffffffffffffffffff168273ffffffffffffffffffffffffffffffffffffffff1614156112b0576040517f08c379a00000000000000000000000000000000000000000000000000000000081526004016112a790612599565b60405180910390fd5b6112bb838383611713565b6112c6600082610f16565b6001600360008573ffffffffffffffffffffffffffffffffffffffff1673ffffffffffffffffffffffffffffffffffffffff168152602001908152602001600020600082825461131691906128a5565b925050819055506001600360008473ffffffffffffffffffffffffffffffffffffffff1673ffffffffffffffffffffffffffffffffffffffff168152602001908152602001600020600082825461136d919061281e565b92505081905550816002600083815260200190815260200160002060006101000a81548173ffffffffffffffffffffffffffffffffffffffff021916908373ffffffffffffffffffffffffffffffffffffffff160217905550808273ffffffffffffffffffffffffffffffffffffffff168473ffffffffffffffffffffffffffffffffffffffff167fddf252ad1be2c89b69c2b068fc378daa952ba7f163c4a11628f55a4df523b3ef60405160405180910390a461142c838383611718565b505050565b8173ffffffffffffffffffffffffffffffffffffffff168373ffffffffffffffffffffffffffffffffffffffff1614156114a0576040517f08c379a0000000000000000000000000000000000000000000000000000000008152600401611497906125b9565b60405180910390fd5b80600560008573ffffffffffffffffffffffffffffffffffffffff1673ffffffffffffffffffffffffffffffffffffffff16815260200190815260200160002060008473ffffffffffffffffffffffffffffffffffffffff1673ffffffffffffffffffffffffffffffffffffffff16815260200190815260200160002060006101000a81548160ff0219169083151502179055508173ffffffffffffffffffffffffffffffffffffffff168373ffffffffffffffffffffffffffffffffffffffff167f17307eab39ab6107e8899845ad3d59bd9653f200f220920489ca2b5937696c318360405161159191906124fc565b60405180910390a3505050565b6115a98484846111ca565b6115b58484848461171d565b6115f4576040517f08c379a00000000000000000000000000000000000000000000000000000000081526004016115eb90612539565b60405180910390fd5b50505050565b606060405180602001604052806000815250905090565b606061161c82610ea2565b61165b576040517f08c379a0000000000000000000000000000000000000000000000000000000008152600401611652906126d9565b60405180910390fd5b60006116656115fa565b9050600081511161168557604051806020016040528060008152506116b0565b8061168f846118b4565b6040516020016116a0929190612419565b6040516020818303038152906040525b915050919050565b6116c28383611a61565b6116cf600084848461171d565b61170e576040517f08c379a000000000000000000000000000000000000000000000000000000000815260040161170590612539565b60405180910390fd5b505050565b505050565b505050565b600061173e8473ffffffffffffffffffffffffffffffffffffffff16611c3b565b156118a7578373ffffffffffffffffffffffffffffffffffffffff1663150b7a02611767610f0e565b8786866040518563ffffffff1660e01b815260040161178994939291906124b0565b602060405180830381600087803b1580156117a357600080fd5b505af19250505080156117d457506040513d601f19601f820116820180604052508101906117d1919061200a565b60015b611857573d8060008114611804576040519150601f19603f3d011682016040523d82523d6000602084013e611809565b606091505b5060008151141561184f576040517f08c379a000000000000000000000000000000000000000000000000000000000815260040161184690612539565b60405180910390fd5b805181602001fd5b63150b7a0260e01b7bffffffffffffffffffffffffffffffffffffffffffffffffffffffff1916817bffffffffffffffffffffffffffffffffffffffffffffffffffffffff1916149150506118ac565b600190505b949350505050565b606060008214156118fc576040518060400160405280600181526020017f30000000000000000000000000000000000000000000000000000000000000008152509050611a5c565b600082905060005b6000821461192e578080611917906129f2565b915050600a826119279190612874565b9150611904565b60008167ffffffffffffffff811115611970577f4e487b7100000000000000000000000000000000000000000000000000000000600052604160045260246000fd5b6040519080825280601f01601f1916602001820160405280156119a25781602001600182028036833780820191505090505b5090505b60008514611a55576001826119bb91906128a5565b9150600a856119ca9190612a3b565b60306119d6919061281e565b60f81b818381518110611a12577f4e487b7100000000000000000000000000000000000000000000000000000000600052603260045260246000fd5b60200101907effffffffffffffffffffffffffffffffffffffffffffffffffffffffffffff1916908160001a905350600a85611a4e9190612874565b94506119a6565b8093505050505b919050565b600073ffffffffffffffffffffffffffffffffffffffff168273ffffffffffffffffffffffffffffffffffffffff161415611ad1576040517f08c379a0000000000000000000000000000000000000000000000000000000008152600401611ac890612679565b60405180910390fd5b611ada81610ea2565b15611b1a576040517f08c379a0000000000000000000000000000000000000000000000000000000008152600401611b1190612579565b60405180910390fd5b611b2660008383611713565b6001600360008473ffffffffffffffffffffffffffffffffffffffff1673ffffffffffffffffffffffffffffffffffffffff1681526020019081526020016000206000828254611b76919061281e565b92505081905550816002600083815260200190815260200160002060006101000a81548173ffffffffffffffffffffffffffffffffffffffff021916908373ffffffffffffffffffffffffffffffffffffffff160217905550808273ffffffffffffffffffffffffffffffffffffffff16600073ffffffffffffffffffffffffffffffffffffffff167fddf252ad1be2c89b69c2b068fc378daa952ba7f163c4a11628f55a4df523b3ef60405160405180910390a4611c3760008383611718565b5050565b6000808273ffffffffffffffffffffffffffffffffffffffff163b119050919050565b828054611c6a9061298f565b90600052602060002090601f016020900481019282611c8c5760008555611cd3565b82601f10611ca557805160ff1916838001178555611cd3565b82800160010185558215611cd3579182015b82811115611cd2578251825591602001919060010190611cb7565b5b509050611ce09190611ce4565b5090565b5b80821115611cfd576000816000905550600101611ce5565b5090565b6000611d14611d0f84612779565b612754565b905082815260208101848484011115611d2c57600080fd5b611d3784828561294d565b509392505050565b6000611d52611d4d846127aa565b612754565b905082815260208101848484011115611d6a57600080fd5b611d7584828561294d565b509392505050565b600081359050611d8c81613058565b92915050565b600081359050611da18161306f565b92915050565b600081359050611db681613086565b92915050565b600081519050611dcb81613086565b92915050565b600082601f830112611de257600080fd5b8135611df2848260208601611d01565b91505092915050565b600082601f830112611e0c57600080fd5b8135611e1c848260208601611d3f565b91505092915050565b600081359050611e348161309d565b92915050565b600060208284031215611e4c57600080fd5b6000611e5a84828501611d7d565b91505092915050565b60008060408385031215611e7657600080fd5b6000611e8485828601611d7d565b9250506020611e9585828601611d7d565b9150509250929050565b600080600060608486031215611eb457600080fd5b6000611ec286828701611d7d565b9350506020611ed386828701611d7d565b9250506040611ee486828701611e25565b9150509250925092565b60008060008060808587031215611f0457600080fd5b6000611f1287828801611d7d565b9450506020611f2387828801611d7d565b9350506040611f3487828801611e25565b925050606085013567ffffffffffffffff811115611f5157600080fd5b611f5d87828801611dd1565b91505092959194509250565b60008060408385031215611f7c57600080fd5b6000611f8a85828601611d7d565b9250506020611f9b85828601611d92565b9150509250929050565b60008060408385031215611fb857600080fd5b6000611fc685828601611d7d565b9250506020611fd785828601611e25565b9150509250929050565b600060208284031215611ff357600080fd5b600061200184828501611da7565b91505092915050565b60006020828403121561201c57600080fd5b600061202a84828501611dbc565b91505092915050565b60006020828403121561204557600080fd5b600061205384828501611e25565b91505092915050565b6000806040838503121561206f57600080fd5b600061207d85828601611e25565b925050602083013567ffffffffffffffff81111561209a57600080fd5b6120a685828601611dfb565b9150509250929050565b6120b9816128d9565b82525050565b6120c8816128eb565b82525050565b60006120d9826127db565b6120e381856127f1565b93506120f381856020860161295c565b6120fc81612b28565b840191505092915050565b6000612112826127e6565b61211c8185612802565b935061212c81856020860161295c565b61213581612b28565b840191505092915050565b600061214b826127e6565b6121558185612813565b935061216581856020860161295c565b80840191505092915050565b600061217e603283612802565b915061218982612b39565b604082019050919050565b60006121a1602583612802565b91506121ac82612b88565b604082019050919050565b60006121c4601c83612802565b91506121cf82612bd7565b602082019050919050565b60006121e7602483612802565b91506121f282612c00565b604082019050919050565b600061220a601983612802565b915061221582612c4f565b602082019050919050565b600061222d602c83612802565b915061223882612c78565b604082019050919050565b6000612250603883612802565b915061225b82612cc7565b604082019050919050565b6000612273602a83612802565b915061227e82612d16565b604082019050919050565b6000612296602983612802565b91506122a182612d65565b604082019050919050565b60006122b9602e83612802565b91506122c482612db4565b604082019050919050565b60006122dc602083612802565b91506122e782612e03565b602082019050919050565b60006122ff603183612802565b915061230a82612e2c565b604082019050919050565b6000612322602c83612802565b915061232d82612e7b565b604082019050919050565b6000612345600583612813565b915061235082612eca565b600582019050919050565b6000612368602f83612802565b915061237382612ef3565b604082019050919050565b600061238b602183612802565b915061239682612f42565b604082019050919050565b60006123ae603183612802565b91506123b982612f91565b604082019050919050565b60006123d1602d83612813565b91506123dc82612fe0565b602d82019050919050565b60006123f4600483612813565b91506123ff8261302f565b600482019050919050565b61241381612943565b82525050565b60006124258285612140565b91506124318284612140565b91508190509392505050565b6000612448826123c4565b91506124548284612140565b915061245f82612338565b915081905092915050565b6000612475826123c4565b9150612480826123e7565b915061248b82612338565b9150819050919050565b60006020820190506124aa60008301846120b0565b92915050565b60006080820190506124c560008301876120b0565b6124d260208301866120b0565b6124df604083018561240a565b81810360608301526124f181846120ce565b905095945050505050565b600060208201905061251160008301846120bf565b92915050565b600060208201905081810360008301526125318184612107565b905092915050565b6000602082019050818103600083015261255281612171565b9050919050565b6000602082019050818103600083015261257281612194565b9050919050565b60006020820190508181036000830152612592816121b7565b9050919050565b600060208201905081810360008301526125b2816121da565b9050919050565b600060208201905081810360008301526125d2816121fd565b9050919050565b600060208201905081810360008301526125f281612220565b9050919050565b6000602082019050818103600083015261261281612243565b9050919050565b6000602082019050818103600083015261263281612266565b9050919050565b6000602082019050818103600083015261265281612289565b9050919050565b60006020820190508181036000830152612672816122ac565b9050919050565b60006020820190508181036000830152612692816122cf565b9050919050565b600060208201905081810360008301526126b2816122f2565b9050919050565b600060208201905081810360008301526126d281612315565b9050919050565b600060208201905081810360008301526126f28161235b565b9050919050565b600060208201905081810360008301526127128161237e565b9050919050565b60006020820190508181036000830152612732816123a1565b9050919050565b600060208201905061274e600083018461240a565b92915050565b600061275e61276f565b905061276a82826129c1565b919050565b6000604051905090565b600067ffffffffffffffff82111561279457612793612af9565b5b61279d82612b28565b9050602081019050919050565b600067ffffffffffffffff8211156127c5576127c4612af9565b5b6127ce82612b28565b9050602081019050919050565b600081519050919050565b600081519050919050565b600082825260208201905092915050565b600082825260208201905092915050565b600081905092915050565b600061282982612943565b915061283483612943565b9250827fffffffffffffffffffffffffffffffffffffffffffffffffffffffffffffffff0382111561286957612868612a6c565b5b828201905092915050565b600061287f82612943565b915061288a83612943565b92508261289a57612899612a9b565b5b828204905092915050565b60006128b082612943565b91506128bb83612943565b9250828210156128ce576128cd612a6c565b5b828203905092915050565b60006128e482612923565b9050919050565b60008115159050919050565b60007fffffffff0000000000000000000000000000000000000000000000000000000082169050919050565b600073ffffffffffffffffffffffffffffffffffffffff82169050919050565b6000819050919050565b82818337600083830152505050565b60005b8381101561297a57808201518184015260208101905061295f565b83811115612989576000848401525b50505050565b600060028204905060018216806129a757607f821691505b602082108114156129bb576129ba612aca565b5b50919050565b6129ca82612b28565b810181811067ffffffffffffffff821117156129e9576129e8612af9565b5b80604052505050565b60006129fd82612943565b91507fffffffffffffffffffffffffffffffffffffffffffffffffffffffffffffffff821415612a3057612a2f612a6c565b5b600182019050919050565b6000612a4682612943565b9150612a5183612943565b925082612a6157612a60612a9b565b5b828206905092915050565b7f4e487b7100000000000000000000000000000000000000000000000000000000600052601160045260246000fd5b7f4e487b7100000000000000000000000000000000000000000000000000000000600052601260045260246000fd5b7f4e487b7100000000000000000000000000000000000000000000000000000000600052602260045260246000fd5b7f4e487b7100000000000000000000000000000000000000000000000000000000600052604160045260246000fd5b6000601f19601f8301169050919050565b7f4552433732313a207472616e7366657220746f206e6f6e20455243373231526560008201527f63656976657220696d706c656d656e7465720000000000000000000000000000602082015250565b7f4552433732313a207472616e736665722066726f6d20696e636f72726563742060008201527f6f776e6572000000000000000000000000000000000000000000000000000000602082015250565b7f4552433732313a20746f6b656e20616c7265616479206d696e74656400000000600082015250565b7f4552433732313a207472616e7366657220746f20746865207a65726f2061646460008201527f7265737300000000000000000000000000000000000000000000000000000000602082015250565b7f4552433732313a20617070726f766520746f2063616c6c657200000000000000600082015250565b7f4552433732313a206f70657261746f7220717565727920666f72206e6f6e657860008201527f697374656e7420746f6b656e0000000000000000000000000000000000000000602082015250565b7f4552433732313a20617070726f76652063616c6c6572206973206e6f74206f7760008201527f6e6572206e6f7220617070726f76656420666f7220616c6c0000000000000000602082015250565b7f4552433732313a2062616c616e636520717565727920666f7220746865207a6560008201527f726f206164647265737300000000000000000000000000000000000000000000602082015250565b7f4552433732313a206f776e657220717565727920666f72206e6f6e657869737460008201527f656e7420746f6b656e0000000000000000000000000000000000000000000000602082015250565b7f45524337323155524953746f726167653a2055524920736574206f66206e6f6e60008201527f6578697374656e7420746f6b656e000000000000000000000000000000000000602082015250565b7f4552433732313a206d696e7420746f20746865207a65726f2061646472657373600082015250565b7f45524337323155524953746f726167653a2055524920717565727920666f722060008201527f6e6f6e6578697374656e7420746f6b656e000000000000000000000000000000602082015250565b7f4552433732313a20617070726f76656420717565727920666f72206e6f6e657860008201527f697374656e7420746f6b656e0000000000000000000000000000000000000000602082015250565b7f2e6a736f6e000000000000000000000000000000000000000000000000000000600082015250565b7f4552433732314d657461646174613a2055524920717565727920666f72206e6f60008201527f6e6578697374656e7420746f6b656e0000000000000000000000000000000000602082015250565b7f4552433732313a20617070726f76616c20746f2063757272656e74206f776e6560008201527f7200000000000000000000000000000000000000000000000000000000000000602082015250565b7f4552433732313a207472616e736665722063616c6c6572206973206e6f74206f60008201527f776e6572206e6f7220617070726f766564000000000000000000000000000000602082015250565b7f68747470733a2f2f6b6172646961636861696e2e776172616c7068612e696f2f60008201527f6173736574732f73686970732f00000000000000000000000000000000000000602082015250565b7f3030303000000000000000000000000000000000000000000000000000000000600082015250565b613061816128d9565b811461306c57600080fd5b50565b613078816128eb565b811461308357600080fd5b50565b61308f816128f7565b811461309a57600080fd5b50565b6130a681612943565b81146130b157600080fd5b5056fea264697066735822122092b6723ce701b94b316cc2c254204db4ca58bc42ea5fcdd96557c8230518889764736f6c63430008040033",
  "immutableReferences": {},
  "source": "// SPDX-License-Identifier: UNLICENSED\npragma solidity >=0.8.4;\n\nimport \"@openzeppelin/contracts/token/ERC721/ERC721.sol\";\nimport \"@openzeppelin/contracts/utils/Counters.sol\";\nimport \"@openzeppelin/contracts/token/ERC721/extensions/ERC721URIStorage.sol\";\n\nerror MinterError();\n\ncontract Minter is ERC721URIStorage {\n    using Counters for Counters.Counter;\n    Counters.Counter private _tokenIds;\n    mapping(uint256 => string) public _tokenToShipCode;\n    mapping(address => mapping(uint256 => uint256)) public _ownedTokens;\n\n    constructor(string memory tokenName, string memory symbol) ERC721(tokenName, symbol) {\n    }\n\n    function mintShip() public returns (uint256) {\n        _tokenIds.increment();\n        uint256 tokenId = _tokenIds.current();\n\n        _safeMint(msg.sender, tokenId);\n\n        _tokenToShipCode[tokenId] = \"0000\"; // Basic ship\n\n        _addTokenToOwnerEnumeration(msg.sender, tokenId);\n\n        //string(bytes.concat(bytes(a), \" \", bytes(b)))\n        string memory metadataURI = string(\n            abi.encodePacked(\"https://kardiachain.waralpha.io/assets/ships/\", \"0000\", \".json\")\n        );\n        _setTokenURI(tokenId, metadataURI);\n\n        return tokenId;\n    }\n\n    function upgradeShip(uint256 tokenId, string memory shipCode) public {\n        _tokenToShipCode[tokenId] = shipCode;\n\n        string memory metadataURI = string(\n            abi.encodePacked(\"https://kardiachain.waralpha.io/assets/ships/\", shipCode, \".json\")\n        );\n\n        _setTokenURI(tokenId, metadataURI);\n    }\n\n    function _addTokenToOwnerEnumeration(address owner, uint256 tokenId) private {\n        uint256 length = balanceOf(owner);\n        _ownedTokens[owner][length] = tokenId;\n    }\n\n    function tokenOfOwnerByIndex(uint256 index) public view virtual returns (uint256) {\n        //require(index < balanceOf(owner), \"ERC721Enumerable: owner index out of bounds\");\n        return _ownedTokens[msg.sender][index];\n    }\n\n    function throwError() external pure {\n        revert MinterError();\n    }\n}\n",
  "sourcePath": "/Users/lol/apps/fun/ipfs-nft-generator-toolbox/contracts/contracts/Minter.sol",
  "compiler": {
    "name": "solc",
    "version": "0.8.4+commit.c7e474f2.Emscripten.clang"
  },
  "schemaVersion": "3.4.7",
  "updatedAt": "2022-08-17T13:59:48.827Z",
  "networkType": "ethereum",
  "devdoc": {
    "kind": "dev",
    "methods": {
      "approve(address,uint256)": {
        "details": "See {IERC721-approve}."
      },
      "balanceOf(address)": {
        "details": "See {IERC721-balanceOf}."
      },
      "getApproved(uint256)": {
        "details": "See {IERC721-getApproved}."
      },
      "isApprovedForAll(address,address)": {
        "details": "See {IERC721-isApprovedForAll}."
      },
      "name()": {
        "details": "See {IERC721Metadata-name}."
      },
      "ownerOf(uint256)": {
        "details": "See {IERC721-ownerOf}."
      },
      "safeTransferFrom(address,address,uint256)": {
        "details": "See {IERC721-safeTransferFrom}."
      },
      "safeTransferFrom(address,address,uint256,bytes)": {
        "details": "See {IERC721-safeTransferFrom}."
      },
      "setApprovalForAll(address,bool)": {
        "details": "See {IERC721-setApprovalForAll}."
      },
      "supportsInterface(bytes4)": {
        "details": "See {IERC165-supportsInterface}."
      },
      "symbol()": {
        "details": "See {IERC721Metadata-symbol}."
      },
      "tokenURI(uint256)": {
        "details": "See {IERC721Metadata-tokenURI}."
      },
      "transferFrom(address,address,uint256)": {
        "details": "See {IERC721-transferFrom}."
      }
    },
    "version": 1
  },
  "userdoc": {
    "kind": "user",
    "methods": {},
    "version": 1
  }
}